{
  "contractName": "Genome",
  "abi": [
    {
      "inputs": [],
      "payable": false,
      "stateMutability": "nonpayable",
      "type": "constructor"
    },
    {
      "payable": true,
      "stateMutability": "payable",
      "type": "fallback"
    },
    {
      "constant": false,
      "inputs": [
        {
          "name": "_genome",
          "type": "string"
        }
      ],
      "name": "upload",
      "outputs": [],
      "payable": false,
      "stateMutability": "nonpayable",
      "type": "function"
    },
    {
      "constant": false,
      "inputs": [
        {
          "name": "_validate",
          "type": "bool"
        },
        {
          "name": "_user",
          "type": "address"
        }
      ],
      "name": "validate",
      "outputs": [],
      "payable": false,
      "stateMutability": "nonpayable",
      "type": "function"
    },
    {
      "constant": false,
      "inputs": [
        {
          "name": "_newPayout",
          "type": "uint256"
        }
      ],
      "name": "updatePayout",
      "outputs": [],
      "payable": false,
      "stateMutability": "nonpayable",
      "type": "function"
    },
    {
      "constant": true,
      "inputs": [
        {
          "name": "_start",
          "type": "uint256"
        }
      ],
      "name": "getgenomeData",
      "outputs": [
        {
          "name": "",
          "type": "string"
        }
      ],
      "payable": false,
      "stateMutability": "view",
      "type": "function"
    },
    {
      "constant": true,
      "inputs": [
        {
          "name": "_start",
          "type": "uint256"
        }
      ],
      "name": "getgenomeUser",
      "outputs": [
        {
          "name": "",
          "type": "address"
        }
      ],
      "payable": false,
      "stateMutability": "view",
      "type": "function"
    },
    {
      "constant": false,
      "inputs": [
        {
          "name": "_value",
          "type": "uint256"
        }
      ],
      "name": "manualRecovery",
      "outputs": [],
      "payable": false,
      "stateMutability": "nonpayable",
      "type": "function"
    }
  ],
  "bytecode": "0x6060604052341561000f57600080fd5b670de0b6b3a764000060028190555033600360006101000a81548173ffffffffffffffffffffffffffffffffffffffff021916908373ffffffffffffffffffffffffffffffffffffffff1602179055506107e08061006e6000396000f300606060405260043610610078576000357c0100000000000000000000000000000000000000000000000000000000900463ffffffff1680631cc0a4701461007a57806342ce1488146100be578063544c71821461011b578063ad1a755c1461017e578063c7d4a613146101a1578063dceab01f146101c4575b005b341561008557600080fd5b6100bc6004808035151590602001909190803573ffffffffffffffffffffffffffffffffffffffff16906020019091905050610260565b005b34156100c957600080fd5b610119600480803590602001908201803590602001908080601f01602080910402602001604051908101604052809392919081815260200183838082843782019150505050505091905050610315565b005b341561012657600080fd5b61013c6004808035906020019091905050610405565b604051808273ffffffffffffffffffffffffffffffffffffffff1673ffffffffffffffffffffffffffffffffffffffff16815260200191505060405180910390f35b341561018957600080fd5b61019f600480803590602001909190505061044e565b005b34156101ac57600080fd5b6101c260048080359060200190919050506104b4565b005b34156101cf57600080fd5b6101e56004808035906020019091905050610519565b6040518080602001828103825283818151815260200191508051906020019080838360005b8381101561022557808201518184015260208101905061020a565b50505050905090810190601f1680156102525780820380516001836020036101000a031916815260200191505b509250505060405180910390f35b600360009054906101000a900473ffffffffffffffffffffffffffffffffffffffff1673ffffffffffffffffffffffffffffffffffffffff163373ffffffffffffffffffffffffffffffffffffffff161415156102bc57600080fd5b600115158215151415610310578073ffffffffffffffffffffffffffffffffffffffff166108fc6002549081150290604051600060405180830381858888f19350505050151561030b57600080fd5b610311565b5b5050565b61031d6105e1565b81816000018190525033816020019073ffffffffffffffffffffffffffffffffffffffff16908173ffffffffffffffffffffffffffffffffffffffff1681525050600080548060010182816103729190610617565b9160005260206000209060020201600083909190915060008201518160000190805190602001906103a4929190610649565b5060208201518160010160006101000a81548173ffffffffffffffffffffffffffffffffffffffff021916908373ffffffffffffffffffffffffffffffffffffffff1602179055505050506001600081548092919060010191905055505050565b6000808281548110151561041557fe5b906000526020600020906002020160010160009054906101000a900473ffffffffffffffffffffffffffffffffffffffff169050919050565b600360009054906101000a900473ffffffffffffffffffffffffffffffffffffffff1673ffffffffffffffffffffffffffffffffffffffff163373ffffffffffffffffffffffffffffffffffffffff161415156104aa57600080fd5b8060028190555050565b600360009054906101000a900473ffffffffffffffffffffffffffffffffffffffff1673ffffffffffffffffffffffffffffffffffffffff166108fc829081150290604051600060405180830381858888f19350505050151561051657600080fd5b50565b6105216106c9565b60008281548110151561053057fe5b90600052602060002090600202016000018054600181600116156101000203166002900480601f0160208091040260200160405190810160405280929190818152602001828054600181600116156101000203166002900480156105d55780601f106105aa576101008083540402835291602001916105d5565b820191906000526020600020905b8154815290600101906020018083116105b857829003601f168201915b50505050509050919050565b60408051908101604052806105f46106dd565b8152602001600073ffffffffffffffffffffffffffffffffffffffff1681525090565b8154818355818115116106445760020281600202836000526020600020918201910161064391906106f1565b5b505050565b828054600181600116156101000203166002900490600052602060002090601f016020900481019282601f1061068a57805160ff19168380011785556106b8565b828001600101855582156106b8579182015b828111156106b757825182559160200191906001019061069c565b5b5090506106c59190610747565b5090565b602060405190810160405280600081525090565b602060405190810160405280600081525090565b61074491905b808211156107405760008082016000610710919061076c565b6001820160006101000a81549073ffffffffffffffffffffffffffffffffffffffff0219169055506002016106f7565b5090565b90565b61076991905b8082111561076557600081600090555060010161074d565b5090565b90565b50805460018160011615610100020316600290046000825580601f1061079257506107b1565b601f0160209004906000526020600020908101906107b09190610747565b5b505600a165627a7a723058200fa79e731b26c5f4176a8e761b42a4a56f08f73c8209a27cff9c086d76f30c040029",
  "source": "pragma solidity ^0.4.19;\ncontract Genome {\n\n //mapping(address => string) genomeData;\n userData[] genomeData;\n uint arraySize;\n struct userData {\n     string genome;\n     address user;\n }\n\n uint payout;\n address owner;\n\n function Genome() {\n    payout = 1000000000000000000;\n    owner = msg.sender;\n }\n\n function () payable {\n\n }\n\n function upload(string _genome) {\n    userData memory newData;\n    newData.genome = _genome;\n    newData.user = msg.sender;\n    genomeData.push(newData);\n    arraySize++;\n }\n\n function validate(bool _validate, address _user) {\n     require(msg.sender == owner);\n     if(_validate == true) {\n         _user.transfer(payout);\n     } else if (_validate == false) {\n         //send email\n     }\n }\n\n function updatePayout(uint _newPayout) {\n     require(msg.sender == owner);\n     payout = _newPayout;\n }\n \n function getgenomeData(uint _start) constant returns (string) {\n     return genomeData[_start].genome;\n\n }\n\n function getgenomeUser(uint _start) constant returns (address) {\n     return genomeData[_start].user;\n }\n\n function manualRecovery(uint _value) {\n     owner.transfer(_value);\n }\n}\n",
  "sourcePath": "/Users/Ananya/Documents/react-redux-truffle-app/contracts/Genome.sol",
  "compiler": {
    "name": "solc",
    "version": "0.4.21+commit.dfe3193c.Emscripten.clang"
  },
  "schemaVersion": "2.0.0",
  "updatedAt": "2018-04-07T17:43:42.685Z"
}