{
  "contractName": "MerchantRegistry",
  "abi": [
    {
      "constant": true,
      "inputs": [
        {
          "name": "",
          "type": "address"
        }
      ],
      "name": "tokenRegistry",
      "outputs": [
        {
          "name": "",
          "type": "bool"
        }
      ],
      "payable": false,
      "stateMutability": "view",
      "type": "function"
    },
    {
      "anonymous": false,
      "inputs": [
        {
          "indexed": false,
          "name": "tokenAddr",
          "type": "address"
        }
      ],
      "name": "Added",
      "type": "event"
    },
    {
      "constant": false,
      "inputs": [
        {
          "name": "_merchant",
          "type": "address"
        }
      ],
      "name": "add",
      "outputs": [
        {
          "name": "",
          "type": "address"
        }
      ],
      "payable": false,
      "stateMutability": "nonpayable",
      "type": "function"
    },
    {
      "constant": true,
      "inputs": [
        {
          "name": "addr",
          "type": "address"
        }
      ],
      "name": "isInRegistry",
      "outputs": [
        {
          "name": "",
          "type": "bool"
        }
      ],
      "payable": false,
      "stateMutability": "view",
      "type": "function"
    }
  ],
  "bytecode": "0x6060604052341561000f57600080fd5b6102dc8061001e6000396000f300606060405260043610610057576000357c0100000000000000000000000000000000000000000000000000000000900463ffffffff1680630a3b0a4f1461005c578063e4bb26f2146100d5578063fdd0751714610126575b600080fd5b341561006757600080fd5b610093600480803573ffffffffffffffffffffffffffffffffffffffff16906020019091905050610177565b604051808273ffffffffffffffffffffffffffffffffffffffff1673ffffffffffffffffffffffffffffffffffffffff16815260200191505060405180910390f35b34156100e057600080fd5b61010c600480803573ffffffffffffffffffffffffffffffffffffffff1690602001909190505061023b565b604051808215151515815260200191505060405180910390f35b341561013157600080fd5b61015d600480803573ffffffffffffffffffffffffffffffffffffffff16906020019091905050610290565b604051808215151515815260200191505060405180910390f35b600060016000808473ffffffffffffffffffffffffffffffffffffffff1673ffffffffffffffffffffffffffffffffffffffff16815260200190815260200160002060006101000a81548160ff0219169083151502179055507fdcfefddfe354ab15def7a2a6a8758e2ad4100c920318c627db94e29d833e156782604051808273ffffffffffffffffffffffffffffffffffffffff1673ffffffffffffffffffffffffffffffffffffffff16815260200191505060405180910390a1819050919050565b60008060008373ffffffffffffffffffffffffffffffffffffffff1673ffffffffffffffffffffffffffffffffffffffff16815260200190815260200160002060009054906101000a900460ff169050919050565b60006020528060005260406000206000915054906101000a900460ff16815600a165627a7a72305820be0e9aa010c9dc51438bc2551028e95ed76efb214318f524514a9a512a5ee1100029",
  "source": "pragma solidity ^0.4.18;\n\ncontract MerchantRegistry {\n\n  //Registry\n  mapping(address => bool) public tokenRegistry;\n\n  //Event when new token is created\n  event Added(address tokenAddr);\n\n  //Function to create new tokens by calling the HumanStandardToken contract\n  function add(address _merchant) returns (address) {\n    tokenRegistry[_merchant] = true;\n    Added(_merchant);\n    return _merchant;\n  }\n\n  //Checks to see if token contract exists in the registry\n  function isInRegistry(address addr) constant returns (bool) {\n  \treturn tokenRegistry[addr];\n  }\n}\n",
  "sourcePath": "/Users/Ananya/Documents/react-redux-truffle-app/contracts/MerchantRegistry.sol",
  "compiler": {
    "name": "solc",
    "version": "0.4.21+commit.dfe3193c.Emscripten.clang"
  },
  "schemaVersion": "2.0.0",
  "updatedAt": "2018-04-07T17:43:42.686Z"
}